S0120000536C6176655F436F64652E737265633D
S11300000C942A000C943C000C943C000C943C008E
S11300100C943C000C943C000C943C000C943C006C
S11300200C943C000C943C000C9431010C943C0066
S11300300C943C000C943C000C943C000C943C004C
S11300400C943C000C943C000C943C000C943C003C
S11300500C943C0011241FBECFE5D4E0DEBFCDBF1D
S113006020E0A0E6B0E001C01D92A336B207E1F79C
S11300700E9414010C9470010C940000613031F161
S113008038F0623009F440C0633009F45BC008956D
S1130090413061F44AB321E030E0B90102C0660F97
S11300A0771F8A95E2F7CB01842B0EC0411167C0FC
S11300B04AB321E030E0B90102C0660F771F8A9588
S11300C0E2F7CB01809584238ABB0895413061F423
S11300D047B321E030E0B90102C0660F771F8A956B
S11300E0E2F7CB01842B0EC0411149C047B321E094
S11300F030E0B90102C0660F771F8A95E2F7CB01A1
S11301008095842387BB0895413061F444B321E092
S113011030E0B90102C0660F771F8A95E2F7CB0180
S1130120842B0EC041112BC044B321E030E0B9014F
S113013002C0660F771F8A95E2F7CB01809584236E
S113014084BB0895413061F441B321E030E0B9014A
S113015002C0660F771F8A95E2F7CB01842B0EC08D
S113016041110DC041B321E030E0B90102C0660F76
S1130170771F8A95E2F7CB018095842381BB08958C
S1130180813079F028F08230A9F08330E1F00895CD
S1130190613019F48FEF8ABB089561111CC01ABA3B
S11301A00895613019F48FEF87BB0895611113C06E
S11301B017BA0895613019F48FEF84BB0895611163
S11301C00AC014BA0895613019F48FEF81BB089501
S11301D0611101C011BA0895813069F028F08230AC
S11301E089F08330B1F00895613019F48FEF8BBB3F
S11301F008951BBA0895613019F48FEF88BB0895F0
S113020018BA0895613019F48FEF85BB089515BAB3
S11302100895613019F48FEF82BB089512BA0895DE
S113022081E080936000089541E061E086E00E94EF
S11302303E0061E083E00E94C00060E083E00E9431
S1130240EC0080E191E00E946B010E945E018091CC
S113025060008823E1F30E94690182BB1092600070
S1130260F6CF1F920F920FB60F9211242F933F9344
S11302704F935F936F937F938F939F93AF93BF93AA
S1130280EF93FF938091610090916200892B29F094
S1130290E0916100F09162000995FF91EF91BF91A7
S11302A0AF919F918F917F916F915F914F913F910A
S11302B02F910F900FBE0F901F9018956B986A9A0C
S11302C06C98689A699870986D986E9A6F9A7894F9
S11302D008958FB10895909362008093610008950A
S10702E0F894FFCFBC
S9030000FC
