:100000000C942A000C943C000C943C000C943C0092
:100010000C943C000C943C000C943C000C943C0070
:100020000C943C000C943C000C94B7010C943C00E4
:100030000C943C000C943C000C943C000C943C0050
:100040000C943C000C943C000C943C000C943C0040
:100050000C943C0011241FBECFE5D4E0DEBFCDBF21
:1000600020E0A0E6B0E001C01D92A336B207E1F7A0
:100070000E947F010C9405020C940000482F8FB55C
:100080008F7B8FBD8FB58F778FBD8FB58F7E8FBDE7
:100090008FB58F7D8FBD8FB58E7F8FBD8FB58D7FD7
:1000A0008FBD8EB588608EBD8EB58F7E8EBD242FA0
:1000B000392FAEE3B0E00E94F601BB27A92F982F9D
:1000C000872F8BBD8EE3489F402D11244ABD8EB5EE
:1000D0008E7F8EBD8EB58D7F8EBD8EB584608EBDBC
:1000E00008B604FEFDCF88B7806188BF08956130EF
:1000F00031F138F0623009F440C0633009F45BC07C
:100100000895413061F44AB321E030E0B90102C002
:10011000660F771F8A95E2F7CB01842B0EC0411141
:1001200067C04AB321E030E0B90102C0660F771F13
:100130008A95E2F7CB01809584238ABB08954130EC
:1001400061F447B321E030E0B90102C0660F771FC8
:100150008A95E2F7CB01842B0EC0411149C047B309
:1001600021E030E0B90102C0660F771F8A95E2F7FF
:10017000CB018095842387BB0895413061F444B35B
:1001800021E030E0B90102C0660F771F8A95E2F7DF
:10019000CB01842B0EC041112BC044B321E030E0D1
:1001A000B90102C0660F771F8A95E2F7CB018095EF
:1001B000842384BB0895413061F441B321E030E0F1
:1001C000B90102C0660F771F8A95E2F7CB01842B35
:1001D0000EC041110DC041B321E030E0B90102C0B1
:1001E000660F771F8A95E2F7CB018095842381BB48
:1001F0000895613031F138F0623009F440C0633065
:1002000009F45BC00895413061F44BB321E030E064
:10021000B90102C0660F771F8A95E2F7CB01842BE4
:100220000EC0411167C04BB321E030E0B90102C0FC
:10023000660F771F8A95E2F7CB01809584238BBBED
:100240000895413061F448B321E030E0B90102C0C3
:10025000660F771F8A95E2F7CB01842B0EC0411100
:1002600049C048B321E030E0B90102C0660F771FF2
:100270008A95E2F7CB018095842388BB08954130AD
:1002800061F445B321E030E0B90102C0660F771F89
:100290008A95E2F7CB01842B0EC041112BC045B3E8
:1002A00021E030E0B90102C0660F771F8A95E2F7BE
:1002B000CB018095842385BB0895413061F442B31E
:1002C00021E030E0B90102C0660F771F8A95E2F79E
:1002D000CB01842B0EC041110DC042B321E030E0B0
:1002E000B90102C0660F771F8A95E2F7CB018095AE
:1002F000842382BB089581E0809360000895CF93AA
:10030000DF931F92CDB7DEB7198241E061E084E050
:100310000E94770041E061E085E00E94770041E0C3
:1003200061E087E00E9477008BE791E00E94F10195
:100330000E94E40140E061E084E00E94F9008981CC
:100340000E94EF0110E1809160008823E1F386E9CB
:1003500090E00E943E0088B3812788BB89818F5F2F
:10036000898389810E94EF0110926000ECCF1F9277
:100370000F920FB60F9211242F933F934F935F93D9
:100380006F937F938F939F93AF93BF93EF93FF935D
:100390008091610090916200892B29F0E0916100C9
:1003A000F09162000995FF91EF91BF91AF919F91FC
:1003B0008F917F916F915F914F913F912F910F900E
:1003C0000FBE0F901F9018956B986A9A6C9A689A56
:1003D000699870986D986E9A6F9A789408958FB90D
:1003E000089590936200809361000895A29FB001E8
:1003F000B39FC001A39F700D811D1124911DB29F59
:0E040000700D811D1124911D0895F894FFCFF9
:00000001FF
